:02000000B32B20
:0E000600213083120313FD00FD0B07280800B4
:100014000F3083120313FC004730FD00FD0B102842
:0A002400FC0B10280000000008008B
:06002E00000000000800C4
:1000340083120313D81B2028871321288717581BE2
:100044002528071326280717D81A2A2887122B28A9
:100054008716581A2F2807123028071647183428ED
:10006400861635288612861717208613D8193C2839
:1000740087133D2887175819412807134228071763
:10008400D818462887124728871658184B2807126D
:100094004C280716471850288616512886128617AA
:1000A40017208613471C58280A20592803200800C3
:0E00B400F201F101F001F801F3010030080043
:0800C200FA1FF21300300800E0
:1000CA007B15FB1F6F280130F300F201F101F001EB
:0800DA00FA0DF20CFF300800E2
:1000E2007B14FB1F7C28F201FA1FFF30F200F100A3
:0A00F200F000FA0DF20CFF300800D8
:0E00FC008312031346088A004508820008009C
:10010A000E3083120313FD00FD0B8928000008003E
:10011A008312031347105708D8001A2047140800FF
:10012A00A0017208031DAA287108F2007008F100E4
:10013A00F001A0157208031DAA287108F200F10146
:10014A00A011201672080319B8282008F302031D0B
:10015A00031CBC280310F21BC028F00DF10DF20D90
:10016A00F30BB028BC280130FC005A20C328023007
:0E017A00FC006520C3280430FC006120080052
:10018800FB14FB1FCE28FF30F300F200F100F00053
:08019800FA0DF20CFF30080023
:0601A000FB15FF30080012
:1001A600831203137408003A031DEE287508003AFB
:1001B600031DEE287608003A031DEE287708003A5C
:1001C600031DEE28FF30F000FF30F1007F30F20013
:1001D600FF30F300080083120313770803197D2903
:1001E600730803198029720876068039FA00F21717
:1001F600F617A0017208F8007108FC007008FD00EF
:100206007408FD027508031C750FFC027608031CB2
:10021600760FF802F801FC01FD01031C19290310F1
:10022600F20CF10CF00CF80C0130A0007708F30288
:10023600031C23297E302007F30703188329282966
:100246007E302007F307031C86291830FA07FD0DB8
:10025600FC0DF80DF00DF10DF20DA00D7408F00275
:100266007508031C750FF1027608031C760FF2025F
:10027600760DA004201C41297D144C297408F00732
:1002860075080318750FF10776080318760AF20742
:100296007D10FA031F307A05031D2A297B1B7D1C5E
:1002A60073290310F00DF10DF20DA00D7408F00284
:1002B6007508031C750FF1027608031C760FF2020F
:1002C600760D20040139FD070318FC0A0319F80A04
:1002D600031D7329F80CFC0CFD0CF30A0319832982
:1002E600FA1FF8137808F2007C08F1007D08F00088
:1002F600003088290130D020882902305A208829E8
:0E0306000430C420882908306520000008005B
:1003140083120313FB017308031D77080319E129F2
:1003240072087606FA007708F3077E30031C9E29CC
:10033400F3020318E429A129F302031CE729720834
:10034400F8007108FC007008FD00F817F617031098
:10035400F201F101F0011830A0007D1CBB297408E2
:10036400F00775080318750FF10776080318760F60
:10037400F207F20CF10CF00CF80CFC0CFD0C031061
:10038400A00BAF29F21BCB29F80DF00DF10DF20DE6
:10039400F3037B1B701CDD29F81FDD29F00A031908
:1003A400F10A0319F20A031DDD29F20CF10CF00C19
:1003B400F30A0319E429FA1FF2130030E929013082
:1003C4005A20E9290230C420E929043065200000BC
:0203D40008001F
:1003D60083120313FB01FC01FA01730803192A2A8D
:1003E600F2178E30F302F31BFB290319FB292D2A82
:1003F600F309F30A08307302031C102AF300F10D07
:100406007208F100F20108307302031C102AF10D84
:10041600F1017308031D0310182A73080319182A1B
:100426000310F20CF10CF30B132A7B1B711C222A0E
:10043600031C222AF10A0319F20AF21B392AFA1FAF
:100446003C2AF209F109F10A0319F20A3C2AF201DF
:10045600F1013C2A7B14FB1F3F2AF201FA1F3F2AB7
:10046600FF30F200F100FA0DF20C3F2A0130FC00D9
:10047600412A0030FC00412AFF30FC00FC08031929
:0E048600452A71207108F0007208F10008008C
:1004940083120313F801F9011030FC00710DF80DFB
:1004A400F90D7408F8027508031C750FF902031896
:1004B400622A7408F80775080318750FF907031002
:0A04C400F00DF10DFC0B502A0800AA
:1004CE008B2A303083120313F00008003130F00015
:1004DE0008003230F00008003330F00008003430ED
:1004EE00F00008003530F00008003630F00008004B
:1004FE003730F00008003830F00008003930F000D6
:10050E0008002E30F000080083120313003054064A
:10051E00031D932A003053060319682A003054062F
:10052E00031D9B2A0130530603196D2A0030540611
:10053E00031DA32A023053060319702A00305406F5
:10054E00031DAB2A033053060319732A00305406D9
:10055E00031DB32A043053060319762A00305406BD
:10056E00031DBB2A053053060319792A00305406A1
:10057E00031DC32A0630530603197C2A0030540685
:10058E00031DCB2A0730530603197F2A0030540669
:10059E00031DD32A083053060319822A003054064D
:1005AE00031DDB2A093053060319852A882A080001
:1005BE00831203139F01C0309F0483161F179F17CA
:1005CE0083125308F000F00D7010F00D7010F00D46
:1005DE00701070089F041F1485201F151F1DF92A07
:1005EE000000F52A1F101E08F100F00183161E08E8
:0805FE00F0040030F1040800D4
:10060600152B803083120313D300282BC030D30060
:10061600282B9430D300282BD430D300282B8030BD
:10062600D300282B831203135308013A0319042B12
:100636005308023A0319092B5308033A03190C2BE2
:100646005308043A03190F2B122B5403F0005308D6
:10065600F0077008D3007008D8001A204710D6019A
:1006660056085507840000080319412B56085507FC
:1006760084000008D7008D20D60A332B47140800C3
:100686007E208A110A128000840AC50A0319C60A46
:08069600F003031D432B0800D3
:10069E00831203137008F8007108F000F101F201E3
:1006AE00F301FB01FC019630F300FA017008F10032
:0C06BE007808F000F801F2019520080017
:1006CA0083160313861386120712871207138713DA
:1006DA0083128613861287130713871207120A20BA
:1006EA000A200A20871607168617172086130A205B
:1006FA008617172086130A208617172086130A20C2
:10070A0007128617172086130A20861717208613C2
:10071A00871287178617172086130A20871307164A
:10072A0086171720861307128617172086130A20A2
:10073A0086171720861307168617172086130A208E
:10074A0007128617172086138717071787160716A3
:0C075A008617172086130A204714080099
:100766003225213083120313D0003330D100FF30FD
:100776008316850065230130D8001A200C30D80076
:100786001A2083169F0102308312D300DF227008DD
:100796008312C8007108C9000330D300DF22700835
:1007A6008312CE007108CF004F23E130F4007A3077
:1007B600F5001C30F6008130F7008A21D730F400AE
:1007C600A330F5007030F6007D30F700D320EB2122
:1007D6007008CE007108CF004808F0004908F10003
:1007E6004F23E130F4007A30F5001C30F6008130FA
:1007F600F7008A210030F4000030F5002030F600C2
:100806008330F700D3200030F4000030F50070305C
:10081600F6008530F7008A21EB217008C8007108C0
:10082600C90071084B06031D1A2C4A087006031DE1
:10083600252C4F084D06031D222C4C084E06031D81
:10084600252C282C0130D8001A204808CA0049084F
:10085600CB004E08CC004F08CD005008D200103017
:10086600F4002730F5004808F0004908F1004A2254
:100876007008D3007108D4006722520884007008FB
:100886008000500AD200E830F4000330F500480832
:10089600F0004908F1004A220A30F4000030F50061
:1008A6004A227808F0007908F1007008D300710830
:1008B600D400672252088400700880000330500775
:1008C600D2006430F4000030F5004808F000490812
:1008D600F1004A220A30F4000030F5004A22780876
:1008E600F0007908F1007008D3007108D40067227F
:1008F60052088400700880000130D3000130D40013
:100906002830D50003230130D3000B30D400500823
:10091600D50003230130D3001030D4004330D50076
:1009260003235108D200E830F4000330F5004E08E6
:10093600F0004F08F1004A227008D3007108D40075
:100946006722520884007008800002305107D200E6
:100956006430F4000030F5004E08F0004F08F10056
:100966004A220A30F4000030F5004A227808F000E6
:100976007908F1007008D3007108D4006722520884
:1009860084007008800003305107D2000A30F4005A
:100996000030F5004E08F0004F08F1004A220A30F8
:1009A600F4000030F5004A227808F0007908F100DA
:1009B6007008D3007108D4006722520884007008BA
:1009C60080000230D3000130D4003830D500032334
:1009D6000230D3000B30D4005108D5000323023077
:1009E600D3001030D4002630D50003230330FB009B
:1009F6008A30FC005530FD00FD0BFF2CFC0BFF2C54
:0C0A0600FB0BFF2C00000000C42B082D8F
:100A640021308400243083120313F0000E30C500BB
:080A74000530C6004323080011
:0A0A1C00303430342E34303400340E
:040A26004134003423
:100A2A0056346F346C34743461346734653420342A
:060A3A003D3420340034BD
:0A0A400030342E34303430340034EA
:100A4A00433475347234723465346E3474342034F9
:060A5A003D34203400349D
:040A600056340034D4
:02400E004A2F37
:00000001FF
